:100000000C94E0040C9427050C9427050C940C1414
:100010000C9427050C9427050C9427050C942705B0
:100020000C9427050C9427050C9449260C941B2747
:100030000C9434210C9427050C9427050C94270567
:100040000C9427050C9427050C9427050C94270580
:100050000C9427050C948D210C9427050C942705EE
:100060000C9427050C9427050C9427050C94270560
:100070000C9427050C9427050C9427050C94270550
:100080000C9427050C9427050C9427050C94270540
:100090000C9427050C9427050C9427050C94270530
:1000A0000C9427050C9427050C94270549055A053F
:1000B0004D055A0551055A055A055A0555055A0563
:1000C00055055A0555055A0555052117211753178A
:1000D0005317A017BE17D218D218C9176218731871
:1000E000731872197219841984197B198419841967
:1000F0008419721972198019841984198019882732
:10010000AF27A728AF27A728FB271E28A7287528D1
:100110008428808182838485868788898A8B8C8DD8
:100120008E8F9091929394A0A1A2A3A4A5A6A7A814
:10013000A9AAABACADAEAFB0B1B2B3B4C0C1C2C38B
:10014000C4C5C6C7C8C9CACBCCCDCECFD0D1D2D3F7
:10015000D40041646A757374005261697365004C20
:100160006F7765720044656661756C74004C6179E7
:1001700065723A20002B0014001A000800150017C1
:1001800000E00004001600070009000A00E1001D5D
:10019000001B00060019000500000000000000E33D
:1001A0000001512C002A00130012000C0018001C42
:1001B00000340033000F000E000D000B0029003842
:1001C000003700360010001100000000000000E6BB
:1001D00000025128002B001E001F002000210022D9
:1001E00000E00000000000000000000000E100004E
:1001F000000000000000000000000000000000E31C
:100200000001002C002A00270026002500240023DE
:1002100000000000004F005200510050000000009C
:10022000000000000000000000000000000000E6E8
:1002300000035128002B001E021F0220022102226F
:1002400002E00000000000000000000000E10000EB
:10025000000000000000000000000000000000E3BB
:100260000003512C002A0027022602250224022323
:10027000023500310030002F002E002D00350231F4
:100280000230022F022E022D02000000000000E6C4
:100290000001002800005C000000000000000000D9
:1002A00000C35CC65CC85CCA5C00000000C45CC7DC
:1002B0005CC95CCB5C00000000000000000000E3B3
:1002C0000001002C00000000000000000000000001
:1002D000000000000000000000000000000000001E
:1002E000000000000000000000000000000000E628
:1002F000000100280000AE00AF00DA0281FFD9F152
:10030000DB20A4A62EAF00A0C000A1C800AED580FF
:10031000A81FD300408D1420000000000000003E04
:100320005B4F5B3E003E6B4F6B3E001C3E7C3E1CB9
:1003300000183C7E3C18001C577D571C001C5E7F3B
:100340005E1C0000183C180000FFE7C3E7FF000038
:100350001824180000FFE7DBE7FF0030483A060EDC
:1003600000262979292600407F05050700407F05E2
:10037000253F005A3CE73C5A007F3E1C1C08000801
:100380001C1C3E7F0014227F2214005F5F005F5F11
:100390000006097F017F00006689956A0060606041
:1003A00060600094A2FFA2940008047E040800107C
:1003B000207E20100008082A1C0800081C2A0808B3
:1003C000001E10101010000C1E0C1E0C0030383EC9
:1003D000383000060E3E0E0600000000000000004F
:1003E000005F000000000700070000147F147F1466
:1003F00000242A7F2A12002313086462003649561B
:10040000205000000807030000001C2241000000EB
:1004100041221C00002A1C7F1C2A0008083E0808F4
:100420000000807030000008080808080000006024
:100430006000002010080402003E5149453E0000C3
:10044000427F4000007249494946002141494D33ED
:10045000001814127F10002745454539003C4A49D1
:100460004931004121110907003649494936004602
:100470004949291E0000001400000000403400001B
:100480000000081422410014141414140000412226
:100490001408000201590906003E415D594E007CD6
:1004A0001211127C007F49494936003E41414122E8
:1004B000007F4141413E007F49494941007F090990
:1004C0000901003E41415173007F0808087F000088
:1004D000417F4100002040413F01007F081422413C
:1004E000007F40404040007F021C027F007F0408E4
:1004F000107F003E4141413E007F09090906003E50
:100500004151215E007F0919294600264949493297
:100510000003017F0103003F4040403F001F204097
:10052000201F003F4038403F00631408146300035D
:1005300004780403006159494D4300007F41414163
:1005400000020408102000004141417F0004020124
:100550000204004040404040000003070800002023
:1005600054547840007F2844443800384444442898
:1005700000384444287F0038545454180000087E42
:100580000902001824241C78007F08040478000065
:10059000447D4000002040403D00007F1028440082
:1005A0000000417F4000007C04780478007C08044F
:1005B0000478003844444438007C18242418001877
:1005C0002424187C007C0804040800485454542453
:1005D0000004043F4424003C4040207C001C204098
:1005E000201C003C4030403C004428102844004C73
:1005F0009090907C004464544C44000008364100C4
:1006000000000077000000004136080000020102EF
:100610000402003C2623263C0000000000000000ED
:10062000000000000000000000C0E0F0F8F8180032
:10063000C0F0FCFEFFFFFFFFFFFFFF7E0000000099
:10064000000000000080C0E0E0E0E0E0E0E0E0C0AA
:10065000800000000080C0E0E0E0E0E0E0E0E0C01A
:1006600080000000E0E0C0C0E0E0E0E00000E0E08A
:10067000C0C0E0E0E0E0E0C0800000000080C0E03A
:10068000E0E0E0E0E0E0E0C080000000000000000A
:1006900000000000000000E0F0F0F0E0ECEEF7F306
:1006A0007020007C7C7C7E007E7E7E7F7F7F0000D1
:1006B00080C0E07E5B4F5BFEC00000C000DCD7DE88
:1006C000DEDED7DC00C000000000000000000000FB
:1006D000000000000000000000000000000000001A
:1006E0000000F8FCFEFFE000FFFFFFFFFFFF80FFC0
:1006F000FFFFFFFFFFFFFFFF1F07010000000000DB
:1007000000000000FFFFFF8100000000000081C327
:10071000C3C30000FFFFFF8100000000000081FF55
:10072000FFFF0000FFFFFF01000000000000FFFFCF
:10073000FF010000000001FFFFFF0000FFFFFF9D21
:100740001C1C1C1C1C1C9DDFDFDF000000000000C7
:10075000000000000000000F1F3F7F7F7F7F7F3F72
:100760001E0C001F1F1F3F003F3F3F7F7F7F003059
:100770007B7F7830202030787F3B0003000F7F0F95
:100780000F0F7F0F000300000000000000000000BA
:100790000000000000000000000000000000000059
:1007A0000000030F1F3F3F3F3F1F1F3F3F7F7F7FE3
:1007B0003F3F1F3F7F7F7F7F7C7878381C0F000092
:1007C00000000000000103070707070707070703EA
:1007D00001000000000103070707070707070703D9
:1007E00001000000070707000000000000000707E5
:1007F00007000000000000070707000000010307D2
:1008000007070707070707030100000000000000B3
:1008100000000000000000000000000000000000D8
:1008200000000000000000000000000000000000C8
:1008300000000000000000000000000000000000B8
:1008400000000000000000000000000000000000A8
:100850000000000000000000000C0343006F007265
:10086000006E0065000000100366006F006F0073EB
:1008700000740061006E0000000403090409023BDB
:1008800000020100A0FA09040000010301010009AF
:1008900021110100012240000705810308000A0917
:1008A000040100010300000009211101000122B62A
:1008B000000705820320000A120110010000000851
:1008C0005346010001000102000105010902A101D6
:1008D00085020901A1000509190129081500250152
:1008E0009508750181020501093009311581257FBF
:1008F00095027508810609381581257F95017508CF
:100900008106050C0A38021581257F95017508813D
:1009100006C0C005010980A101850319012AB7009D
:10092000150126B700950175108100C0050C09015D
:10093000A101850419012AA002150126A002950132
:1009400075108100C005010906A10185050507197B
:10095000E029E715002501950875018102050719B1
:100960000029EF1500250195F07501810205081990
:10097000012905950575019102950175039101C045
:1009800005010906A101050719E029E71500250160
:100990009508750181029501750881010507190007
:1009A00029FF150026FF0095067508810005081926
:1009B000012905950575019102950175039101C005
:1009C00011241FBECFEFDAE0DEBFCDBF04B603FEB9
:1009D00027C08091420590914305A0914405B091B4
:1009E00045058730904BA740B04BD1F4109242059B
:1009F00010924305109244051092450514BE84B729
:100A0000877F84BF0FB6F894A895809160008861B5
:100A100080936000109260000FBEE0E0F8E309955B
:100A200011E0A0E0B1E0E2EFF8E502C005900D9220
:100A3000AA3EB107D9F725E0AAEEB1E001C01D92A8
:100A4000A234B207E1F70E9483230C94772C0C9414
:100A50000000CF93C82F0E94390A882311F08C2FF1
:100A600001C082E0CF91089560E08DE691E00E94A0
:100A7000760E8091C0029091C102A091C202B09105
:100A8000C3028F309105B0F4FC01EA5AFF4F0C9479
:100A9000212960E085E691E00BC060E08FE591E000
:100AA00007C060E089E591E003C060E082E591E085
:100AB0000C94880E08959C013056211540E23407AD
:100AC00020F0305E2115304108F499278C339105D0
:100AD00028F4FC01EA5CFE4F208101C020E21F9255
:100AE0002F939F938F93FB0180811F928F9381811E
:100AF0001F928F9385E291E09F938F931F9288E1DD
:100B00008F938CEE91E09F938F930E943D298DB738
:100B10009EB70E960FB6F8949EBF0FBE8DBF089578
:100B200060E08CEE91E00C945A0E60E082E191E07E
:100B30000C94760E0E94390A882321F00E94340515
:100B40000C9490050C949505FB01228121110E94C3
:100B50005B0581E0089581E008950C94A405089553
:100B60000C94AF051F93CF93DF9300D000D01F925A
:100B7000CDB7DEB749835A836B833091690289818F
:100B80009A81311114C0662359F0222349F00E9442
:100B9000161E182F682F89819A810E94BD1D03C0DF
:100BA0000E94E91D182F69817A81812F04C00E945B
:100BB000161E69817A810F900F900F900F900F9001
:100BC000DF91CF911F910C947106FC01262F40817B
:100BD00051816281738184810C94B205CF93DF933C
:100BE000EC0160E00E94E505BE01DF91CF910C941D
:100BF000B0050E947B080C94B5080C94B1080895C8
:100C00000E9460190E94FF052FEF84E39CE02150B1
:100C100080409040E1F700C000000C94F4210F9355
:100C20001F93CF93DF938C0161E00E94E505EC01F7
:100C3000B8010E94AD058823F1F1B801CE010E94F0
:100C40007A108823C1F1B801CE010E94CC1088230C
:100C500091F1B801CE010E94F711882361F1F801EA
:100C60008281882309F1CB358DE5D807C1F050F496
:100C7000C115FCE5DF0781F0CF3DDC45A9F40E94FA
:100C80001A2019C0CC35EDE5DE0761F0CD35DD4524
:100C900059F40E94A91E08C00E9400060CC00E94C0
:100CA000B21E02C00E94B51EC801DF91CF911F91F4
:100CB0000F910C94AB0580E0DF91CF911F910F91C4
:100CC000089508950C94610681E008950C946406DB
:100CD000CF93C82F0E9462068C2F0E946606CF9188
:100CE000089520E3829FC0011124FC0126E0729F39
:100CF000E00DF11D1124E60FF11DEE0FFF1FEB5863
:100D0000FE4F859194910895CF93DF930E947106D1
:100D10000E948607EC01811521E5920708F043C087
:100D2000811540E5940708F08AC0883E910520F5BA
:100D3000803E910508F0E6C0883A910570F4853A46
:100D4000910508F074C08130910509F4DBC008F406
:100D5000D7C0049708F0D6C0D3C08F3B910508F0E8
:100D6000CFC0C85AD0E0CC0FDD1FCE58DE4F09905F
:100D7000D881C02DD464C6C0C11580E2D80758F40C
:100D8000C11521E0D20708F0BDC0CD3ED10508F461
:100D9000B7C0D065B7C0C11540E4D40708F4B0C0EF
:100DA000DF70D06AAFC0C11585E5D807A0F4C115C2
:100DB00024E5D20708F08AC0C11543E5D40708F03E
:100DC0006FC0C11582E5D80708F054C0DC2FCC27CE
:100DD000C16FD06A97C0C11529E5D207A0F4C1152B
:100DE00048E5D40708F077C0C11586E5D80708F0B4
:100DF00087C08C2F0E941A088F71C82FD0E0DC2F7B
:100E0000CC27D0627FC0C1152AE5D20708F468C09C
:100E1000CE0190568115904208F072C08D2F8F71CF
:100E20000E941A08DD27D0628F71D82B6BC0C55A7B
:100E3000D0E0C056DE4FC881D0E0D06463C074E01B
:100E4000969587957A95E1F783709C2F937021E0B2
:100E500030E002C0220F331F9A95E2F73C68382B2E
:100E6000CF70C695C69580E2C89FE0011124C22BC1
:100E7000D32B48C0CE018370992721E030E002C017
:100E8000220F331F8A95E2F78C2F8695869540E2D4
:100E9000849FC0011124E901C82BD92BDC6832C022
:100EA000CE018370992721E030E002C0220F331F6A
:100EB0008A95E2F78C2F8695869540E2849FC00143
:100EC0001124E901C82BD92BDA681CC0DC2FCC27F0
:100ED000C46FD06A17C0DC2FCC27C06FD06A12C095
:100EE0008C2F8F700E941A0894E0D695C7959A951A
:100EF000E1F7CF70D0E0DC2FCC27D069C82B02C03F
:100F0000C0E0D0E0CE01DF91CF9108958238910505
:100F100069F1B0F48133910509F46DC048F4893268
:100F2000910509F463C08A32910509F469C00895F6
:100F30008533910509F455C089339105B9F00895B9
:100F4000833E910569F138F4803E9105B1F0823E0F
:100F5000910509F10895863E9105A9F1873E910515
:100F6000B9F1843E910509F064C023C020911103BA
:100F700020FD4FC021FD4DC008958091110380FDDB
:100F800044C08091120380FF44C08091110384FD0E
:100F900042C083EE4DC08091110382FF38C0F5CF6F
:100FA0008091110382FD33C08091120380FD31C016
:100FB000ECCF8091120381FF32C08091110384FD38
:100FC0002AC087EE35C08091110383FF26C0F5CF7C
:100FD0008091110383FD21C08091120381FD1FC008
:100FE000ECCF8091110385FD1CC01DC080911103C1
:100FF00085FD19C016C08091110386FD16C017C06B
:101000008091110386FD13C010C089E311C082EEE8
:101010000FC080EE0DC080E00BC086EE09C084EEEC
:1010200007C089E205C085E303C08AE201C081E30D
:1010300090E008959091110392FF0DC0282F287120
:10104000283019F4877F846006C0282F247124304B
:1010500011F48B7F886093FF0DC0282F28712831F1
:1010600019F4877E846106C0282F2471243111F47D
:101070008B7E88612091120320FF0DC0382F3871BC
:10108000383019F4877F816006C0382F31713130D4
:1010900011F48E7F886021FF0DC0282F2871283120
:1010A00019F4877E816106C0282F2171213111F446
:1010B0008E7E886194FD877E08950C946C1F0E943B
:1010C00077098FE39CE90197F1F700C000000E94C7
:1010D00077090E94510A811102C084E001C080E0BA
:1010E0000E949F0881FF04C00E945D080C94F421B7
:1010F00008950C945F080E94721F811102C00E9423
:101100001A200E947D1F8093ED020E94851F9093FC
:101110001203809311030E9479080E94811F682F97
:1011200070E080E090E00E94BF1C6091C00270916E
:10113000C1028091C2029091C3020C94F71CE82F67
:10114000F0E0E55EFC4F80810895089580EA8A957D
:10115000F1F7089500C008950C94A60808950C9422
:10116000AE080C94AF080C94AE080C94B308F89435
:10117000E82FE295EF70F0E031A1282F2F7081E089
:1011800090E001C0880F2A95EAF7982F9095932355
:1011900091A392A1892B82A37894089508950C9429
:1011A000CE080F931F93CF93DF930E94530A809131
:1011B000000180910001811102C094E001C090E023
:1011C0009093240384E0891B8093230384E90E9485
:1011D000B70886E60E94B70887E90E94B70886EC40
:1011E0000E94B708C3EAD1E009EA11E089910E94A0
:1011F000B7080C171D07D1F7E3E1F3E0ABE1B3E06B
:1012000011921D9283E0EB31F807D1F784E00E9440
:10121000020A0E94F905DF91CF911F910F910C9462
:101220005D0A1F93CF93DF9300D000D0CDB7DEB718
:101230000E94390A60912403882309F442C019826C
:101240001A821B821C82862F90E0BE016F5F7F4F47
:10125000855E9C4F0E943412811117C08091040258
:101260008F5F80930402863040F1E0912303F0E029
:10127000E55EFC4FDE011196CE01059611921D929E
:10128000A817B907D9F711E019C010920402E0912C
:101290002303F0E0E55EFC4FDE0111969E012B5F1B
:1012A0003F4F10E08D919081981711F0808311E0ED
:1012B0003196A217B307B1F701C010E00E94FD05F7
:1012C0000DC070E0655E7C4F8091230390E0855EE9
:1012D0009C4F0E945E120E94CF0810E0812F0F9059
:1012E0000F900F900F90DF91CF911F9108958F92E3
:1012F0009F92AF92BF92CF92DF92EF92FF920F93A5
:101300001F93CF93DF9389EAA82E81E0B82EC3E123
:10131000D3E09DEAE92E91E0F92E912C01E010E056
:101320006501F5018081F894E82FE295EF70F0E017
:1013300021A18F70A80102C0440F551F8A95E2F7C2
:10134000CA01922F982B91A392A18095892382A301
:1013500078940E94AA08E3EAF1E020E030E0812CD2
:101360004191A42FA295AF70B0E090968C9190E03F
:101370004F7002C0959587954A95E2F780FD07C0AA
:10138000802F022E01C0880F0A94EAF701C080E086
:10139000882A2F5F3F4F2630310511F75FEFA51ADE
:1013A000B50AF60180810E94B7080E94AC088881C6
:1013B000881619F0888281E001C080E0982A219681
:1013C000EA14FB0409F0ACCF6091240370E0655E81
:1013D0007C4F292D44E083E193E00E94030A0E94A0
:1013E0001109992011F081E090E0DF91CF911F91D8
:1013F0000F91FF90EF90DF90CF90BF90AF909F90B4
:101400008F9008950895FF920F931F93CF93DF93CA
:101410008C01F62ED72FC42F222349F081E0809330
:1014200007020E9466219093060280930502809134
:1014300007028823C1F080910502909106020E9464
:101440007E21069780F0EF2DFD2FD8014C2F50E024
:10145000CD01801B910B841795071CF48D9181930E
:10146000F7CF10920702DF91CF911F910F91FF905C
:1014700008958091080281110DC00E94E028811119
:1014800002C082E001C081E080930802823011F442
:101490000E94DB2881E090910802913009F080E001
:1014A00008950C94390A0E94510A809300010E9409
:1014B000390A81110C94281208950E94390A811169
:1014C00002C00C942E12089580910F0280FF0BC071
:1014D0006091060185E0689FB001112475956795BC
:1014E000759567952BC081FF09C06091060185E065
:1014F000689FB00111247595679520C082FF07C0D1
:101500006091060185E0689FB001112417C0909199
:101510000E029923D1F060910501961788F720916A
:10152000060185E0289F90011124929FA001939FBE
:10153000500D112470E0CA010E940D296038710518
:1015400040F46115710519F406C065E070E0862F5E
:1015500008958FE7089581E0089580910F0280FF3C
:1015600008C06091020170E0759567957595679563
:1015700021C081FF06C06091020170E075956795FA
:1015800019C082FF04C06091020170E010C0909108
:101590000D02992399F0609101019617A0F78091AF
:1015A0000201899FC001112470E00E940D2960385A
:1015B000710540F46115710519F406C061E070E031
:1015C000862F08958FE7089581E008958D3E21F4D8
:1015D0000E94640A819504C08E3E29F40E94640A28
:1015E0008093130208958F3E21F40E94640A81952E
:1015F00004C0803F29F40E94640A80931202089577
:10160000893F19F40E94AD0A05C08A3F31F40E9457
:10161000AD0A81958093140208958B3F21F40E94B6
:10162000AD0A819504C08C3F29F40E94AD0A8093D5
:10163000150208959FE0980F983078F421E030E08B
:10164000A90102C0440F551F9A95E2F7CA01909173
:101650001102892B8093110208958D3F21F480910E
:101660000F0281600BC08E3F21F480910F028260D7
:1016700005C08F3F29F480910F02846080930F0290
:1016800008958D3E39F49091130297FF35C0109262
:10169000130259C08E3E29F4909113021916BCF31F
:1016A0002BC0909112028F3E29F497FF25C0109213
:1016B000120249C0803F19F41916CCF31DC0909155
:1016C0001402893F29F41916BCF4109214023BC08D
:1016D0008A3F19F497FF10C0F8CF8B3F39F49091EF
:1016E000150297FF09C0109215022DC08C3F21F4FE
:1016F000909115021916BCF39FE0980F983080F472
:1017000021E030E0A90102C0440F551F9A95E2F78D
:10171000CA0180959091110289238093110213C010
:101720008D3F21F480910F028E7F0BC08E3F21F4FC
:1017300080910F028D7F05C08F3F29F480910F02A9
:101740008B7F80930F0280911202811106C08091DD
:101750001302811102C010920E02809114028111B5
:1017600006C080911502811102C010920D020895E9
:101770000E94662120911202211104C020911302BF
:10178000222321F090930C0280930B0220911402EB
:10179000211104C020911502222321F090930A0206
:1017A0008093090280E192E00C94D514EF92FF92AD
:1017B0000F931F93CF93DF9300D000D000D0CDB70D
:1017C000DEB786E0E0E1F2E0DE01119601900D92D5
:1017D0008A95E1F7E0901202F09013020091140252
:1017E000109115021092120210921302109214021C
:1017F00010921502E11003C0FF2009F45DC0809132
:101800000B0290910C020E947E21AC0190910E027D
:10181000992339F02091070130E02417350758F05B
:101820004BC0209108018AE0289F900111242417C1
:10183000350718F041C09F3F19F09F5F90930E024B
:10184000EE2061F00E94640A1E1414F09FEF01C0A4
:1018500091E0989F902D112490931202FF2061F047
:101860000E94640A1F1414F09FEF01C091E0989F3A
:10187000902D112490931302309112023323E1F042
:10188000209113022223C1F045EB3403C00111243F
:10189000992319F09093120203C081E08093120201
:1018A00035EB2303C0011124992319F090931302FF
:1018B00003C081E080931302011103C0112309F4D6
:1018C0005DC08091090290910A020E947E21AC01C4
:1018D00090910D02992339F02091030130E02417F3
:1018E000350758F04BC0209104018AE0289F9001F1
:1018F00011242417350718F041C09F3F19F09F5F4E
:1019000090930D02002361F00E94AD0A101614F0AE
:101910009FEF01C091E0989F902D112490931402A5
:10192000112361F00E94AD0A111614F09FEF01C05F
:1019300091E0989F902D11249093150230911402FC
:101940003323E1F0209115022223C1F045EB34034B
:10195000C0011124992319F09093140203C081E06F
:101960008093140235EB2303C0011124992319F04D
:101970009093150203C081E08093150280911202BA
:1019800081110BC080911302811107C08091140254
:10199000811103C08091150281110E94B80BEB8266
:1019A000FC820D831E8386E0FE013196A0E1B2E049
:1019B00001900D928A95E1F726960FB6F894DEBF56
:1019C0000FBECDBFDF91CF911F910F91FF90EF9090
:1019D0000895E0E1F2E086E0DF011D928A95E9F7E3
:1019E00010920E0210920D0210920F020895EF92C3
:1019F000FF920F931F93CF93DF93EC017B0164E67B
:101A000070E088E70E9482128C01EC0EFD1ECE155C
:101A1000DF0561F017FD0AC0FE01849164E670E005
:101A20000E94D9128C012196892B89F30E945D13A3
:101A3000C801DF91CF911F910F91FF90EF90089512
:101A4000E5E2F3E080E092E0DF019C011D9221508D
:101A50003040E1F7F0932C05E0932B058FEF9FEFDB
:101A6000909342028093410208950E942905809339
:101A70003D0280FD02C080E801C080E280933C020C
:101A80000E947C126DE070E08CE093E00E94F70C05
:101A9000892B11F080E0089580913D0263E070E0B1
:101AA00081FD03C089E093E002C086E093E00E94DC
:101AB000F70C892B79F76DE070E089EF92E00E94D6
:101AC000F70C892B39F70E947221DC01CB01805A77
:101AD0009541AF4FBF4F8093270590932805A09362
:101AE0002905B0932A050E94200D81E080934002D1
:101AF00080933F0210923E02089520913C0236E00E
:101B0000839FC0011124629F800D911D11248115B6
:101B100022E0920714F080E090E08B5D9C4F909360
:101B20002C0580932B05089520912B0530912C05D1
:101B30002F51334040913C02642F70E0C9010E9454
:101B4000F928481B463010F4240F311D211582E07E
:101B5000380710F020E030E02B5D3C4F30932C052F
:101B600020932B050895CF93DF938A3011F481E001
:101B700003C08D3029F480E0DF91CF910C94290EC1
:101B8000C62F682F80912B0590912C0526E0FC0133
:101B9000A6E1B2E001900D922A95E1F7603E30F0A7
:101BA00026E0FC0111922A95E9F70AC0F6E06F9F42
:101BB000B0011124675E7C4F46E050E00E94272967
:101BC000C11135C0C0912B05D0912C0546E050E0E5
:101BD000BE0186E192E00E943029892BB1F1C55205
:101BE000D3409E0185E0369527958A95E1F781E0FF
:101BF00090E0AC0102C0440F551F2A95E2F72091F6
:101C0000410230914202242B352B259645E0D69592
:101C1000C7954A95E1F702C0880F991FCA95E2F768
:101C2000822B932B90934202809341020EC0E0914D
:101C30002B05F0912C059F012A5F3F4F2E173F0780
:101C400009F2808180958193F9CFDF91CF910C9437
:101C5000940DCF93E82F20912B0530912C05255220
:101C6000334040913C02642F70E0C9010E94F92882
:101C7000481B842FEE2359F066E00E94ED28C82F00
:101C8000C150B0F060E080E20E94B30DF9CFA9012D
:101C9000480F511D4115524018F080E020E030E01F
:101CA000280F311D2B5D3C4F30932C0520932B05C5
:101CB000CF910895FF920F931F93CF93DF93EC0181
:101CC000F62EFC0101900020E9F78F010150110967
:101CD000C017D10728F46F2D89910E94B30DF8CF5A
:101CE000DF91CF911F910F91FF9008951F93CF9394
:101CF000DF93EC01162FFE018491882329F0612FD8
:101D00000E94B30D2196F7CFDF91CF911F910895D7
:101D10000E94760E81E00C94290E80914002882367
:101D2000F9F00E947221DC01CB01805A9541AF4F3E
:101D3000BF4F8093270590932805A0932905B09362
:101D40002A0580913F0281110BC062E070E087EFAD
:101D500092E00E94F70C892B19F481E080933F02F6
:101D600080913F0208956F927F928F929F92AF92DF
:101D7000BF92CF92DF92EF92FF920F931F93CF9378
:101D8000DF9380914002882309F4DCC02091410256
:101D9000309142022115310509F4D4C080913E02F0
:101DA0008111D0C061E070E0082F10E03B01082EE7
:101DB00002C0660C771C0A94E2F7A901462157215C
:101DC000452B11F48F5FF0CF90913D02980165E0B3
:101DD000220F331F6A95E1F790FD12C08295880F9C
:101DE000807680930B01220F232F221F330B319516
:101DF00020930E01815E80930C0110920F0112C09E
:101E000045E0369527954A95E1F7220F220F220FDC
:101E100020930B0110920E01295F20930C0183E0A7
:101E200080930F0124E630E047E050E069E071E084
:101E300088E70E940913892B09F084C080913D0234
:101E400080FD23C0A80195E0440F551F9A95E1F746
:101E50004B5D5C4F04E610E020E230E060E488E790
:101E60000E943013892B09F06DC00E948D0EE30192
:101E7000C095D0958091410290914202C823D92308
:101E8000D0934202C09341025DC080E2ECE1F2E0F7
:101E9000DF011D928A95E9F785E0000F111F8A95F1
:101EA000E1F7A5EBB1E041EB51E0992493942D913A
:101EB000EA018991AE01B801680F711D6B5D7C4F1D
:101EC00030E0245E3D4FF90197E07F01E21AF30A0A
:101ED000A92C01C0AA0CEA94EAF77B01B12CE70116
:101EE00089917E018A21892E8B18D82DD770CD2E0D
:101EF0000D2E000CDD08C82F01C0CC0FDA95EAF7D3
:101F0000D194C194D108D7E0CD22DD2401C08695BB
:101F1000CA94EAF78C2BD0808D298083B39488E013
:101F2000B812DDCF915031969F3F79F6C1E0A93BC1
:101F3000BC0709F0BCCF04E610E020E230E04CE141
:101F400052E08CCFDF91CF911F910F91FF90EF90D6
:101F5000DF90CF90BF90AF909F908F907F906F90C9
:101F600008958091400290913F02882389F099233F
:101F700069F062E070E085EF92E00E94F70C892B37
:101F800019F080913F02089510923F0290913F0214
:101F900081E0892708950F931F9380914002882341
:101FA00099F180912505909126050E947E21C29786
:101FB00060F00E946621909326058093250560E0DD
:101FC00080E00E947D0D0E949A050E94B30E8091D0
:101FD0003F028823C9F00E947221009127051091C9
:101FE00028052091290530912A05DC01CB01801BB1
:101FF000910BA20BB30B8F3F9F4FAF4FBF4720F406
:102000001F910F910C94B10F1F910F9108950F9391
:102010001F93CF93DF93C42FD22FFC01828188239B
:10202000C9F0409345020E94662190934402809338
:10203000430280E28C0F883008F057C0C77081E0FF
:1020400001C0880FCA95EAF7DF91CF911F910F91D8
:102050000C94DC1680914502481330C080914302F5
:10206000909144020E947E218436910538F510E259
:102070001D0FCD17B9F080E28C0F883040F4C77087
:1020800081E001C0880FCA95EAF70E94E316183074
:1020900028F581E09D2F977001C0880F9A95EAF787
:1020A0000E94DC16802F0E94D3161830F0F4D770EF
:1020B00081E001C0880FDA95EAF70AC080E28C0F50
:1020C000883098F4C77081E001C0880FCA95EAF79C
:1020D000DF91CF911F910F910C94E316802FDF9128
:1020E000CF911F910F910C94D316DF91CF911F9137
:1020F0000F9108950F939C01CB01243F4CE53407C9
:1021000031F188F4293DFCE53F07D9F02A3D4CE543
:10211000340779F1283D3C45A9F506E221EE41EE70
:1021200068ED7CE52BC0263FFCE53F07E1F0A8F019
:10213000273F3C4539F507E225EE46EE67EF7CE5A3
:102140001DC007E225EE45EE69ED7CE517C006E20D
:1021500021EE40EE64EF7CE511C007E225EE44EE8F
:1021600065EF7CE50BC006E221EE42EE66EF7CE512
:1021700005C008E221E045EE6AED7CE50E9407100B
:1021800080E008C0FC018281882319F0109245028A
:1021900001C081E00F910895CF93DF93EC01FB0123
:1021A0008281882309F41FC1C230FCE5DF0708F4EF
:1021B0001BC1C6319CE5D90738F09E012B5F3C4519
:1021C0002930310508F010C10E94851F9093120339
:1021D00080931103C031ECE5DE0709F4C3C008F0B9
:1021E00041C0C8308CE5D80709F49AC0F0F4C43077
:1021F000ECE5DE0709F487C068F4C2308CE5D80747
:1022000009F477C0C330DC4509F0E3C080911103C5
:10221000826076C0C630ECE5DE0709F46EC008F0D7
:102220007BC08091110388606BC0CC308CE5D807EF
:1022300009F485C068F4CA30ECE5DE0709F474C01F
:1022400008F079C00E94601980911103806858C01D
:10225000CE308CE5D80709F476C008F07FC08091B5
:1022600011038BC0CC3FECE5DE0709F44FC018F535
:10227000C3318CE5D80709F47DC078F4C131ECE5B1
:10228000DE0709F473C0C231DC4509F0A2C00E9428
:102290006019809111038F7733C0C5318CE5D80761
:1022A00009F472C008F486C0CB3FDC4509F091C048
:1022B000809112033EC0C115FDE5DF0709F45FC040
:1022C00058F4CE3F9CE5D90709F444C008F43FC058
:1022D0008091120382602DC0C230FDE5DF0709F452
:1022E00075C008F45DC0C330DD4509F072C080E000
:1022F0006EC080911103816003C0809111038061E1
:102300008093110366C08091110311C08091120364
:102310008260809312035DC0809111038062F0CFD0
:10232000809111038064ECCF8091110388608460F8
:10233000E7CF8160EECF809111038E7FE1CF809156
:1023400011038D7FDDCF80911103877FD9CF8091DD
:10235000120318C0809112038D7FDBCF809111038F
:102360008F7ECECF809111038F7DCACF80911103D4
:102370008F7BC6CF80911103877F8B7FC1CF8091E8
:1023800012038D7F8E7FC5CF8091110382FB2227A0
:1023900020F991E0922790FB82F990FB83F9B0CF6E
:1023A00080911203982F909591708E7F892B90FBCE
:1023B00081F9AFCF0E9460198091110387FB22271A
:1023C00020F991E0922790FB87F99ACF81E00E9453
:1023D0001C2080911103909112030E94961F0E946D
:1023E000601980E001C081E0DF91CF910895CF9323
:1023F000DF9386319C4541F5EB010E94B81E982F72
:102400008A812091180130911901882379F09A7AF4
:1024100081E009F480E080934602911102C069E2F4
:1024200001C065E3C9010E94B7200AC0809146023D
:10243000811102C069E201C065E3C9010E94C220A6
:102440000E94FD1E80E001C081E0DF91CF910895E0
:1024500061E070E080E191E00C94BE1361E070E017
:1024600080E191E00C94C513CF93DF93D62FC72F53
:102470000E945D14892BF1F4ED2FFC2F80E090E099
:10248000DC01A45BBD4F2C91219301968430910512
:10249000B9F70E94D921DC01CB010296A11DB11D23
:1024A0008093480290934902A0934A02B0934B0252
:1024B00081E001C080E0DF91CF910895CF93DF9359
:1024C000D62FC72F609148027091490280914A022D
:1024D00090914B020E94BC21ED2FFC2F80E090E0F8
:1024E0002191DC01A45BBD4F2C93019684309105B2
:1024F000B9F7DF91CF9108951092B9008CE08093E5
:10250000B8000895EF92FF920F931F93CF93DF933C
:10251000182FEB011092BC0084EA8093BC000E944B
:1025200066217C018091BC0087FD0EC0CF3F8FEFFC
:10253000D807C1F30E9466218E199F098C179D0749
:1025400088F38EEF9FEF2EC08091B900887F88308E
:1025500041F08091B900887F803119F08FEF9FEFB3
:1025600021C01093BB0084E88093BC000E946621C8
:102570008C018091BC0087FD0CC0CF3F8FEFD80746
:10258000C1F30E946621801B910B8C179D0788F375
:10259000D8CF8091B900887F883111F08034F1F66E
:1025A00080E090E0DF91CF911F910F91FF90EF902D
:1025B00008950F931F93CF93DF93EB018093BB009C
:1025C00084E88093BC000E9466218C018091BC004D
:1025D00087FD0EC0CF3F8FEFD807C1F30E94662161
:1025E000801B910B8C179D0788F38EEF9FEF0CC01B
:1025F0002091B900287F81E090E0283211F480E03A
:1026000090E0919581959109DF91CF911F910F9164
:102610000895CF92DF92EF92FF920F931F93CF9383
:10262000DF936B018A017901B9010E948212E601F0
:102630000C0D1D1DC017D10761F424E92093BC00C7
:10264000DF91CF911F910F91FF90EF90DF90CF908E
:10265000089597FDF2CFB70189910E94D912EACF70
:10266000CF92DF92EF92FF920F931F93CF93DF935E
:10267000C62F6A017901B8010E94821297FD11C02C
:10268000B8018C2F0E94D912E601EC0CFD1CCE156E
:10269000DF0539F097FD05C0B80189910E94D91274
:1026A000F6CF24E92093BC00DF91CF911F910F91C9
:1026B000FF90EF90DF90CF90089584E98093BC0065
:1026C00008958EE14A9B02C08150E1F74A9BFECFFC
:1026D00008955A9880E28A95F1F75A9A0895FC0174
:1026E0002AE02A95F1F728E090E080E031E040E12F
:1026F0004A95F1F7880F4A9B02C08160932700C07A
:10270000000040E14A95F1F7215089F720E12A9530
:10271000F1F729B100C0000030E13A95F1F722FB52
:10272000222720F992272081920F90830895EF921B
:10273000FF920F931F93CF93DF931F92CDB7DEB716
:1027400019828C017C01E60EF11C0E151F0551F05B
:102750000E946113CE0101960E946F13F8018193CC
:102760008F01F3CF81E09981911180E00F90DF918B
:10277000CF911F910F91FF90EF9008959093510288
:1027800080935002529A5A9A0895909351028093DE
:10279000500252985A9AEA9AE9E6F0E080818F7CDA
:1027A00080830895615091E001C0990F6A95EAF71E
:1027B00020E031E0992361F0492F482319F05A9A1B
:1027C000232701C05A9840E24A95F1F79695F2CF37
:1027D000222311F05A9A01C05A9880E28A95F1F7A3
:1027E0005A980895FF920F931F93CF93DF93EC01B4
:1027F0008C01060F111DC017D10741F0F9900E94FE
:10280000691368E08F2D0E94D213F5CFDF91CF912D
:102810001F910F91FF9008951F920F920FB60F9284
:1028200011242F933F934F935F936F937F938F93D5
:102830009F93AF93BF93CF93DF93EF93FF935A98F8
:10284000529AC0915002D09151026D81662321F0BD
:102850008E819F810E94F2130E94691380E18A9504
:10286000F1F75A9852985A9A80E18A95F1F76A815D
:10287000662351F08B819C810E949713E881F98136
:10288000811104C082E003C0E881F98188E080837F
:102890000E946113FF91EF91DF91CF91BF91AF91B2
:1028A0009F918F917F916F915F914F913F912F9168
:1028B0000F900FBE0F901F901895CF93DF93C0918C
:1028C0005002D0915102F894529A5A9885E08A9514
:1028D000F1F7000052985A9A80E28A95F1F74A9BE4
:1028E0000AC0529A5A9AE881F98181E080837894EB
:1028F00081E090E02CC06D81662381F08E819F8104
:102900000E94971381110AC0529A5A9AE881F9815C
:1029100082E08083789482E090E019C00E94611385
:1029200080E28A95F1F75A98529A80E18A95F1F7F8
:102930006A81662321F08B819C810E94F2130E94A0
:102940006913E881F9811082789480E090E0DF914A
:10295000CF91089590935702809356020895E09185
:102960005602F0915702309721F00190F081E02D4E
:10297000099480E00895E0915602F0915702309753
:1029800099F020912401222359F02091110327FF6F
:1029900007C0DC012C9111962C93119725E02C9304
:1029A0000280F381E02D09940895E0915602F091A0
:1029B0005702309739F022E0DC012C930480F58136
:1029C000E02D099408952091540230915502281762
:1029D000390771F09093550280935402E0915602AA
:1029E000F0915702309721F00680F781E02D09948D
:1029F000089520915202309153022817390771F03F
:102A00009093530280935202E0915602F091570244
:102A1000309721F00084F185E02D099408950E94FB
:102A200072216093650270936602809367029093AF
:102A300068026093610270936202809363029093D4
:102A40006402089585B7806885BF85B7806885BFB3
:102A500008950C94390A08950C942B150C942B1599
:102A60000C942E150C942B150C9432150C942B15DC
:102A70000E9422158AE69FE10E9405220E943615D7
:102A80000C9434150E942C150C942B150E945D217A
:102A90000E94B3210E94D10880E00E94350D0C9461
:102AA00030158F929F92AF92BF92CF92DF92EF92AA
:102AB000FF920F931F93CF93DF93CDB7DEB72A9783
:102AC0000FB6F894DEBF0FBECDBF0E947709982ED7
:102AD00081110E940F1589E5A82E82E0B82E00E032
:102AE00010E0802E802F0E949F08D82EF501C19003
:102AF0005F01C826B1F40F5F1F4F0830110589F739
:102B00008FEF89838A831B820E9466218160782FE0
:102B10009D838C8349815A816B818D810E94F81538
:102B20002FC08091ED0281FD0E94A508E12CFF24B9
:102B3000F3948C2D8F21F1F00E942915882399F0B0
:102B4000EE828F82DF2081E009F480E088870E9496
:102B500066218160782F9A8789874E815F81688599
:102B60008A850E94F815F801E75AFD4F8081F82602
:102B7000F08206C0E394FF0CF6E0EF12DACFBBCF91
:102B80000E94CB0F91100E948D0E0E94D60B0E94C6
:102B9000AF14909158028917C1F00E94AF1480932E
:102BA00058022A960FB6F894DEBF0FBECDBFDF9154
:102BB000CF911F910F91FF90EF90DF90CF90BF903A
:102BC000AF909F908F900C9468062A960FB6F89459
:102BD000DEBF0FBECDBFDF91CF911F910F91FF9050
:102BE000EF90DF90CF90BF90AF909F908F9008951F
:102BF000DF92EF92FF920F931F93CF93DF93CDB7A6
:102C0000DEB72B970FB6F894DEBF0FBECDBFF42E04
:102C1000052F162FE72ED82E61110E94D81EFE0117
:102C2000319686E0DF011D928A95E9F77E2D4F2DC2
:102C3000502F612F8D2D9E810E94FF1B2B960FB66A
:102C4000F894DEBF0FBECDBFDF91CF911F910F91E2
:102C5000FF90EF90DF900895FC01808191810E94A8
:102C6000581E0895CF93882309F450C0C82F8CEFC5
:102C70008C0F813AD0F46C2F80911801909119013A
:102C80000E943720882349F06C2F80911801909181
:102C900019010E94C2200E94FD1E6C2F8091180114
:102CA000909119010E94B7200CC080E28C0F8830EF
:102CB00058F4C77081E001C0880FCA95EAF70E94F6
:102CC000BB1ECF910C94FD1EEBE5EC0FE33040F4FE
:102CD000F0E0E951FE4F808190E0CF910C94E31435
:102CE000E8E5EC0FE73150F4F0E0EE0FFF1FE7549A
:102CF000FE4F80819181CF910C94F914CD3E30F03C
:102D00008C2F0E94E60ACF910C94B80BCF910895B6
:102D1000882389F19CEF980F913A40F4682F8091B5
:102D20001801909119010E94C2200DC090E2980FE5
:102D3000983058F4877091E001C0990F8A95EAF7AE
:102D4000892F0E94C11E0C94FD1E9BE5980F9330A5
:102D500020F480E090E00C94E31498E5980F97310C
:102D600020F480E090E00C94F9148D3E20F00E9455
:102D7000410B0C94B80B08951F93CF93DF93182F3A
:102D8000EB010E943216209741F08FE99FE00197F6
:102D9000F1F700C000002197F6CF812FDF91CF918E
:102DA0001F910C948816893319F060E070E002C01E
:102DB00060E570E00C94BC16882321F00E94BB1ED5
:102DC0000C94FD1E0895882321F00E94C11E0C94CE
:102DD000FD1E0895CF92DF92EF92FF920F931F9303
:102DE000CF93DF937C01D62FC72FFC011281058181
:102DF00002950F700E94901E882399F0112389F08C
:102E00008C2F807F803421F080E28D0F883048F055
:102E100082E00E944D1F0E94901E91E0D82ED9267C
:102E200001C0D12CCC2EC2948FE0C8228C2D90E012
:102E30008C30910508F0B6C1FC01EB59FF4F0C94A2
:102E400021298C2F807FCF70882311F0C295C07FFD
:102E5000112399F0CC2309F491C180E28D0F8830C1
:102E600010F0D11104C08C2F0E94BB1E03C08C2F08
:102E70000E94CB1E0E94FD1E81C18D2F0E948816CC
:102E8000CC2309F48FC180E28D0F883010F0D1116E
:102E900004C08C2F0E94C11E03C08C2F0E94D11E23
:102EA0000E94FD1E7FC18C2F807FCF70803211F079
:102EB000C295C07FDD2319F0D130C9F022C01123A3
:102EC00071F0002341F0013031F40E94DE1E8C2BA2
:102ED0000E94E61E67C10E94DE1E8C2B1DC00023CF
:102EE00019F0013009F45EC10E94F31E25C01123C0
:102EF00021F0063008F056C10EC0053008F052C16E
:102F00001BC0112361F0002331F0F701858180FFA0
:102F100035C18F7085838C2F0E94DC1643C100233E
:102F200059F0D93309F03BC1FFEF07EE13E0F15040
:102F300000401040E1F731C18C2F0E94E31632C1EE
:102F40008C2F86958695837019F0813061F02AC1A7
:102F5000112321F08D2F9C2F937002C080E090E010
:102F60000E94E31427C1112321F08D2F9C2F937011
:102F700002C080E090E00E94F9141CC18D2F112343
:102F800019F00E94E60A02C00E94410B0E94B80B91
:102F900011C18C2F837009F047C0111107C12D2F6B
:102FA000229526952770220F220F6D2F6F70862F86
:102FB00090E0A0E0B0E0022E04C0880F991FAA1F85
:102FC000BB1F0A94D2F7D4FF10C04FE050E060E07E
:102FD00070E004C0440F551F661F771F2A95D2F773
:102FE000409550956095709503C040E050E0BA015F
:102FF000C695C695C3708A019B01082B192B2A2BF5
:103000003B2BC901B801C23049F058F4C13019F066
:103010000E94D31CCBC00E94C11CC8C00E94E51CEA
:10302000C5C00E94BF1CC2C0112319F08C2F817033
:1030300001C08695882309F4B9C02D2F22952695C5
:103040002770220F220F6D2F6F70862F90E0A0E067
:10305000B0E0022E04C0880F991FAA1FBB1F0A945C
:10306000D2F7D4FF10C04FE050E060E070E004C041
:10307000440F551F661F771F2A95D2F7409550952C
:103080006095709503C040E050E0BA01C695C695C2
:10309000C3708A019B01082B192B2A2B3B2BC901DA
:1030A000B801C23049F058F4C13019F00E94981D9F
:1030B0007DC00E94861D7AC00E94AA1D77C00E9412
:1030C000F91C74C0CF70112339F08C2F0E941F1D82
:1030D0008D2F0E94DC166AC08D2F0E94E3168C2F64
:1030E0000E94401D63C0D23F01F128F4D03F41F05F
:1030F000D13FA1F03FC0D33FF9F0D43F39F13AC0FE
:10310000112341F0053008F04DC08C2F8F710E94C3
:10311000651D48C0063008F045C0F7CF112339F0CF
:103120008C2F8F710E941F1D3DC01123C9F38C2F5E
:103130008F710E94401D36C0112329F08C2F8F7192
:103140000E940A1D2FC00E94051D2CC0112349F0AA
:10315000CF718C2F0E941F1D63E08C2F0E94321FA5
:1031600021C081E00E944D1F0230E0F082E00E9409
:103170004D1F18C0112331F0002391F28D2F0E94B2
:10318000321610C0002399F2D93349F41FEF27EE0D
:1031900033E0115020403040E1F700C000008D2F97
:1031A0000E94881688EF8C0D843020F40E94AF14A2
:1031B0000E946806DD20C9F00E948C1E80FD15C0AB
:1031C000F70112820E94861E0E941F1DC7010E94E5
:1031D00016190E94861EDF91CF911F910F91FF90CB
:1031E000EF90DF90CF900C94401DDF91CF911F9115
:1031F0000F91FF90EF90DF90CF9008950F931F9362
:10320000CF93DF93EC01688179818A810E94631EEC
:103210008C010E94BC1D0E94AD1CB801CE010E9411
:10322000EA16DF91CF911F910F910895CF93DF930D
:10323000EC01988189812B813C81232B31F08F3FD8
:1032400031F481E09F3F19F403C081E001C080E0C8
:1032500080FD19C0CE010E940F0681110CC00E9492
:10326000901E882381F08A81882369F082E0DF91B3
:10327000CF910C944D1FCE010E94FE18CE01DF911C
:10328000CF910C94EE05DF91CF91089580E090E00E
:103290000E94E31480E090E00E94F9140E94D81E7E
:1032A0000E94DB1E0E94FD1E0E94E90C0C94B80BCC
:1032B00080911801909119010E94CD200C9446191B
:1032C0000E94C81E0C945819E92FE295EF704E2FFA
:1032D00050E0FA013297EE30F105B0F4EF58FF4FAD
:1032E0000C942129803F91F018F4883E68F40EC0B8
:1032F000843F51F40BC0883E48F0813F29F406C05A
:1033000093FB882780F9089580E0089581E008956F
:103310000E94581E0E9464190895CF93DF9300D035
:1033200000D01F92CDB7DEB70F900F900F900F9087
:103330000F90DF91CF910895CF93DF9300D000D00D
:1033400000D0CDB7DEB726960FB6F894DEBF0FBE1D
:10335000CDBFDF91CF9108951F93CF93DF93C0919D
:103360006A0216E080916B02C81799F0D0E01C9FAA
:10337000F0011D9FF00D1124E459FD4F4081518152
:1033800062817381848195810E949C192196C77006
:10339000E9CFDF91CF911F91089540919C02509108
:1033A0009D0260919E0270919F028091A002909177
:1033B000A1020C949C190F931F93CF93DF938091DC
:1033C000A10282958F7009F05DC080919E028823D2
:1033D00009F458C080916A0210916B0260919C02BE
:1033E00070919D02C0919F02D091A00291E06F3F29
:1033F00009F090E0292F06E0811709F443C02097D7
:1034000021F07F3F21F030E003C031E001C0322FD6
:1034100090E030FD34C0089FF001099FF00D1124A9
:10342000DF01A459BD4F11963C911197371327C066
:103430003C91361324C012963C91129731111FC053
:1034400013964D915C9114974C1B5D0B44365105BE
:10345000B0F48091A1028F7080618093A102EF5837
:10346000FD4F80818F70806180838CE992E00E94A3
:103470001619DF91CF911F910F910C94AC19019601
:103480008770BACFDF91CF911F910F9108959F92CE
:10349000AF92BF92CF92DF92EF92FF920F931F9362
:1034A000CF93DF93CDB7DEB761970FB6F894DEBF49
:1034B0000FBECDBF8C0185E0F801DE011D960190A5
:1034C0000D928A95E1F7F80140815181E280909157
:1034D0009C0260919D0220919F023091A0022115D3
:1034E000310531F06F3F31F481E09F3F19F403C0A3
:1034F00081E001C080E0F82FF1709F2E80FD2CC18B
:10350000F801A380B4808CE9C82E82E0D82EF09018
:103510009E02F501E21BF30BFF2009F4EBC0809142
:10352000A102E436F10508F0A7C0282F207F09F09A
:1035300052C0561313C0491311C0FE2CE1100EC027
:103540008F7080618093A1020E94CD19C6010E94F4
:1035500016198091A102F80185833EC1AB2831F094
:103560005F3F31F481E04F3F19F403C081E001C0B7
:1035700080E080FD03C081E08E2502C080E090E005
:10358000F82FF170FF2E80FF1CC080916A022091FD
:103590006B0236E0821709F4FDC090E0389FF0011D
:1035A000399FF00D1124E459FD4F6181561306C077
:1035B0006081461303C06281E61203C001968770E2
:1035C000E9CFFE2CEE2009F407C18091A1028160B1
:1035D0008093A10266C0561312C0491310C0E110B7
:1035E0000EC0F8018583C8010E94161986E0F80113
:1035F000ACE9B2E001900D928A95E1F7C8C04D8721
:103600005E878D859E850E948819882379F1EE203A
:1036100069F12091A102822F82958F7090E002972C
:1036200074F080919C0290919D0298878F831986F7
:10363000BB86AA862C87CE0107960E94161986E0C3
:10364000F801ACE9B2E001900D928A95E1F70E9491
:10365000DB190E94CD190DC0561729F14D875E87E1
:103660008D859E850E94881981112CC0C8010E94F9
:103670001619FF24F394B0C0282F207F69F77A2D04
:10368000B98AA88A6E2D89890E948D198CE992E0E9
:103690000E94161986E0F60111928A95E9F70E94B8
:1036A000CD19F12C99C04913D9CFE110D7CFF8012A
:1036B0008583C8010E94161986E0F60111928A9549
:1036C000E9F78AC0EE2091F22091A102822F829523
:1036D0008F7090E002970CF4B2CF80919C02909191
:1036E0009D029A8389831B82BD82AC822E83CE0188
:1036F0000196A3CFE436F10510F5FE2CEE2009F477
:10370000B5CF56130BC0491309C086E0F801ACE9E8
:10371000B2E001900D928A95E1F75EC04D875E8719
:103720008D859E850E948819811189CF8091A10283
:1037300081608093A102C8010E9416194DC07A2DA4
:10374000B98AA88A6E2D89890E948D1986E0F601B2
:1037500011928A95E9F71BC0EE2009F487CF4D87B7
:103760005E878D859E850E948819F82E882309F42E
:103770007DCF86E0F801ACE9B2E001900D928A9528
:10378000E1F78CE992E00E942C160E94DB190E945E
:10379000CD1922C04D875E878D859E850E94581E5B
:1037A000292F22952F70223028F49F7039F0811133
:1037B00005C00BC0243028F49F7049F4805E883027
:1037C00020F0C8010E9416199F2CF92C05C0F801A1
:1037D0009581907F99F7F9CF8F2D61960FB6F89468
:1037E000DEBF0FBECDBFDF91CF911F910F91FF9034
:1037F000EF90DF90CF90BF90AF909F9008951F9370
:10380000CF93DF93CDB7DEB72C970FB6F894DEBF1A
:103810000FBECDBF4F83588769877A878B879C8778
:10382000CE0107960E94471A8823D1F09F81888590
:103830002A853B85232B31F08F3F31F481E09F3F78
:1038400019F403C081E001C080E080FD47C04F81D2
:10385000588569857A858B859C850E949C193EC018
:1038600086E0FE013796DE01119601900D928A9551
:10387000E1F7FF81E8856A857B856115710531F087
:10388000EF3F31F481E0FF3F19F403C081E001C054
:1038900080E080FD23C020916B0230E0C9010196D9
:1038A0008770992740916A0250E084179507F1F1DB
:1038B000F983EA837D836C8396E0929FD001939F86
:1038C000B00D1124A459BD4FFE01319601900D9207
:1038D0009A95E1F780936B020E94AC1916E08091F3
:1038E0006A0290916B02891771F1189FC00111242F
:1038F00084599D4F0E94471A882329F1E0916A025A
:103900001E9FF0011124E459FD4F408151816281D5
:103910007381848195810E949C1980916A0290E054
:1039200001968770992780936A02D9CF0E94601907
:1039300010926B0210926A02ECE9F2E086E0DF017D
:103940001D928A95E9F72C960FB6F894DEBF0FBE4C
:10395000CDBFDF91CF911F910895089508950C94E4
:10396000AE1C0C94AF1C0E94B11C6093C4027093F7
:10397000C5028093C6029093C7020C9446190C941A
:10398000B31C0F931F930091C4021091C5022091A4
:10399000C6023091C702602B712B822B932B1F9193
:1039A0000F910C94B31C0F931F930091C4021091BC
:1039B000C5022091C6023091C70260237123822381
:1039C00093231F910F910C94B31C0F931F9300919D
:1039D000C4021091C5022091C6023091C70260272F
:1039E0007127822793271F910F910C94B31C0C947D
:1039F000AE1C0E94F71C6093C0027093C1028093BA
:103A0000C2029093C3020C94461960E070E0CB01AF
:103A10000C94F91C0F931F9341E050E060E070E0BC
:103A20008A019B0104C0000F111F221F331F8A95BA
:103A3000D2F7C901B8011F910F910C94F91C0F9393
:103A40001F9341E050E060E070E004C0440F551F58
:103A5000661F771F8A95D2F78091C0029091C102AC
:103A6000A091C202B091C3028A019B01082B192BBD
:103A70002A2B3B2BC901B8011F910F910C94F91C03
:103A80000F931F9341E050E060E070E004C0440FEA
:103A9000551F661F771F8A95D2F740955095609500
:103AA00070958091C0029091C102A091C202B09124
:103AB000C3028A019B01082319232A233B23C9013E
:103AC000B8011F910F910C94F91C0F931F9341E0C3
:103AD00050E060E070E004C0440F551F661F771F80
:103AE0008A95D2F78091C0029091C102A091C20242
:103AF000B091C3028A019B01082719272A273B2777
:103B0000C901B8011F910F910C94F91C0F931F93D9
:103B10000091C0021091C1022091C2023091C302F3
:103B2000602B712B822B932B1F910F910C94F91CFE
:103B30000F931F930091C0021091C1022091C20205
:103B40003091C30260237123822393231F910F912D
:103B50000C94F91C0F931F930091C0021091C102A5
:103B60002091C2023091C3026027712782279327D8
:103B70001F910F910C94F91C0895292F220F920F79
:103B8000990F890FE82FE695E695E695877051E045
:103B900001C0550F8A95EAF785E0E89FF0011124EE
:103BA000EE55FD4F20E030E070E04081CB01022E69
:103BB00002C0969587950A94E2F7817081958427D3
:103BC0008523842781932F5F3F4F2530310569F787
:103BD0000895292F220F920F990F890F682F66954C
:103BE00066956695982F977085E0689FB0011124BF
:103BF00040E050E080E0FB01E40FF51FEE55FD4F83
:103C0000208130E0092E02C0369527950A94E2F70C
:103C100021703327042E01C0220F0A94EAF7822B69
:103C20004F5F5F4F4530510531F70895BF92CF92F6
:103C3000DF92EF92FF920F931F93CF93DF938C014C
:103C4000C090C002D090C102E090C202F090C302C6
:103C50008091C4029091C502A091C602B091C702A2
:103C6000C82AD92AEA2AFB2ACFE1D0E0D701C60127
:103C70000C2E04C0B695A795979587950A94D2F710
:103C800080FD04C0219790F7B12C07C0BC2EB8016D
:103C90008C2F0E9484060197A9F38B2DDF91CF9181
:103CA0001F910F91FF90EF90DF90CF90BF900895FC
:103CB000CF93DF93EC010E94161EBE010E94840682
:103CC000DF91CF9108951F93CF93DF93EB019091F4
:103CD0006902992321F0CB010E94581E13C088234A
:103CE00049F0CB010E94161E182F682FCE010E94AA
:103CF000BD1D04C0CB010E94E91D182FBE01812FFC
:103D00000E948406DF91CF911F9108958091C8028F
:103D100085958595859508958091C8028770089549
:103D20009091C802977081E009F480E00895909125
:103D3000120392FB222720F9281751F080FB92F9F9
:103D40009093120380911103909112030C94961F8B
:103D500008958091120382FB882780F991E08927DA
:103D60000C94971E81E00C94971E80E00C94971E93
:103D70008091EC0208959091EC02892B8093EC02E3
:103D8000089580959091EC0289238093EC02089528
:103D90001092EC0208959091EB02892B8093EB0234
:103DA000089580959091EB0289238093EB0208950A
:103DB0001092EB0208951092EA0208958091C902D0
:103DC000089508950C94E11E0C94E21E9091120344
:103DD00092FD08C09091C902981721F08093C90202
:103DE0000C94E41E08958091C902882329F0109252
:103DF000C90280E00C94E41E0895E0911801F0914E
:103E000019018091EC028083E0911801F091190171
:103E100090818091EB02892B8083E0911801F091D1
:103E2000190190818091EA02892B80838091C902D7
:103E3000882381F0E0911801F09119019081892B7C
:103E4000808380911801909119010E942120811195
:103E50000E94F31E80911801909119010C94BB14DB
:103E60000C94E11E9091120392FD10C098E0899F7E
:103E700090011124262B2093C8020E941F1D8091BF
:103E8000C8028595859585950C94301F0C941F1D4F
:103E90001092C80280E00C94301F2091C8028095D7
:103EA00082238093C802982F977041F430E0482F06
:103EB000082E000C550B2417350721F4909112039E
:103EC00092FF07C08595859585950E94401D0C94AD
:103ED000481F089580E008956FEF7FEF80E090E045
:103EE0000C942A2C80E090E00E94062C21E08A3E6F
:103EF0009E4F09F020E0822F089582E090E00C941C
:103F0000FE2B83E090E00C94FE2BCF9384E090E0B6
:103F10000E94FE2BC82F82E290E00E94FE2B2C2FE5
:103F200030E0A901582BCA01CF910895CF93C92F32
:103F3000682F84E090E00E940C2C6C2F82E290E0CD
:103F4000CF910C940C2CAB01BC018FE090E00C9451
:103F50001E2CAB01BC0183E190E00C941E2C60E0B0
:103F600070E0CB010C94A91F60E070E0CB010E94CF
:103F7000A31F0C94AF1F6AEE7EEF80E090E00E94DA
:103F80002A2C60E082E090E00E940C2C60E083E04C
:103F900090E00E940C2C1092C4021092C502109264
:103FA000C6021092C70260E084E090E00E940C2CF0
:103FB00060E082E290E00E940C2C60E085E090E0FE
:103FC0000E940C2C60E086E090E00E940C2C6FEFC9
:103FD00087E090E00E940C2C40E050E0BA0188E0BD
:103FE00090E00E941E2C60E08DE090E00E940C2C7E
:103FF00040E050E0BA0188E190E00E941E2C60E0B1
:1040000087E190E00E940C2C40E050E0BA018CE186
:1040100090E00E941E2C60E070E080E290E00E9440
:104020002A2C40E050E0BA0188E190E00E941E2C6A
:104030000C94B41F0C94BB1F682F8EE090E00C947E
:104040000C2CFC01329680912401882331F0809160
:10405000110387FF02C09EE101C096E080E091500D
:1040600028F021912223D9F38F5FF9CF0895662399
:1040700051F1209124012223E9F02091110327FF1F
:1040800019C0462F4695469546954E31E0F4677027
:1040900021E030E002C0220F331F6A95E2F7FC01F5
:1040A000E40FF11D828190E02823392381E0232B46
:1040B00069F409C0FC01329608962191621729F033
:1040C000E817F907D1F780E0089581E008959C0191
:1040D000FC0132969FEF80E04191461789F09F3FA7
:1040E00019F4411101C0982F8F5F8630A9F79F3FC7
:1040F00039F0F901E90FF11D97FDFA9562830895F2
:1041000008959C012A5F3F4FFC014281461301C084
:104110001282019682179307B9F70895262F2695E4
:10412000269526952E3168F4FC01E20FF11D67708B
:1041300021E030E001C0220F6A95EAF78281282B46
:1041400022830895262F2695269526952E3170F4E4
:10415000FC01E20FF11D677021E030E001C0220F89
:104160006A95EAF720958281282322830895209179
:104170002401222329F02091110327FD0C948E2085
:104180000C94672020912401222329F0209111030F
:1041900027FD0C94A2200C94812020912401FC0185
:1041A0003296222331F08091110387FF02C08EE105
:1041B00001C086E0DF011D928A95E9F70895089510
:1041C0000C94DF200C94DF20CF930E94E2200E9409
:1041D00077090E94E020C0E08C2F0E949F08811187
:1041E00004C0CF5FC830C1F701C081E0CF9108950E
:1041F0000C94DF200C94F82080913905843049F12B
:104200000E94FA2080E00E9468061092EE0220E4EC
:1042100088E190E00FB6F894A895809360000FBEF7
:104220002093600083B7817F846083BF83B7816000
:1042300083BF7894889583B78E7F83BF0FB6F89439
:10424000A895809160008861809360001092600062
:104250000FBE08950C94DF200E9460190E94AF14D5
:104260000E9468060C942A211F920F920FB60F929B
:1042700011248F939F93AF93BF938091EE0281118E
:1042800013C080912D0590912E05A0912F05B0911E
:1042900030054196A11DB11D80932D0590932E05EB
:1042A000A0932F05B0933005BF91AF919F918F914F
:1042B0000F900FBE0F901F90189582E084BD93E081
:1042C00095BD9AEF97BD80936E0008952FB7F8942F
:1042D00080912D0590912E05A0912F05B09130056C
:1042E0002FBF08952FB7F89460912D0570912E057A
:1042F00080912F05909130052FBF08959C014FB7F5
:10430000F89480912D0590912E05A0912F05B091E4
:1043100030054FBF821B930B089578941F920F9224
:104320000FB60F9211248F939F93AF93BF938091F9
:104330002D0590912E05A0912F05B0913005019685
:10434000A11DB11D80932D0590932E05A0932F05DF
:10435000B0933005BF91AF919F918F910F900FBE99
:104360000F901F90189510923105109232051092FF
:104370003305109234050895CF92DF92EF92FF92A9
:104380006B017C010E94390A81110EC00E947221CA
:10439000C61AD70AE80AF90AC0923105D092320546
:1043A000E0923305F0923405FF90EF90DF90CF90CC
:1043B00008950F931F930E94390A882321F01F91BB
:1043C0000F910C9472210E9472210091310510917D
:1043D00032052091330530913405600F711F821F23
:1043E000931F1F910F91089587E797E79093010816
:1043F000809300089AE088E10FB6F894A89580931E
:1044000060000FBE90936000FFCF9093EB0180930C
:10441000EA01089580910F030895CF93DF9300D0B0
:104420001F92CDB7DEB790913905943019F5898385
:104430007B836A8382E08093E9008FEF9091E800AC
:10444000815095FD06C095ED9A95F1F70000811118
:10445000F5CF8091E80085FF0DC040E050E063E0BB
:1044600070E0CE0101960E943D248091E8008E7795
:104470008093E8000F900F900F90DF91CF910895F7
:10448000BC0184E00C940D22BC0183E00C940D224D
:1044900022E02093E9002FEF3091E800215035FD14
:1044A00006C035ED3A95F1F700002111F5CF2091C6
:1044B000E80025FF0BC040E050E066E070E00E949D
:1044C0003D248091E8008E778093E8000895CF9393
:1044D000DF9320912401222339F02091110327FF3B
:1044E00003C060E222E002C068E021E02093E9001E
:1044F0002FEF3091E800215035FD06C035ED3A959B
:10450000F1F700002111F5CF2091E80025FF1DC033
:10451000EC0180912401811105C040E050E068E089
:1045200070E003C070E040E050E0CE010E943D2406
:104530008091E8008E778093E80080E2FE01AFEE84
:10454000B2E001900D928A95E1F7DF91CF91089545
:1045500080913805811109C00E94CE250E942B262A
:104560008091E20084608093E20008951092380503
:10457000089508950895089542E061EC81E00E9455
:10458000472542E261EC82E00C94472580913B058F
:10459000833009F460C030F4813071F0823009F466
:1045A00099C008958A3009F485C08B3009F46BC036
:1045B000893009F0A7C020C080913A05813A09F0FE
:1045C000A1C08091E800877F8093E80080913E053C
:1045D00090913F05892B21F460E28FEE92E003C0B9
:1045E00060E080E090E070E00E9488248091E80024
:1045F0008B778093E800089580913A05813209F025
:1046000081C080913E0590913F05029708F07AC0E5
:104610008091E800877F8093E8008091E80082FD28
:1046200005C0809139058111F8CF6CC02091F3004D
:104630008091F20090E0922B029729F48091F10092
:104640008B7F813021F48091F10080930F03809162
:10465000E8008B7753C080913A05813A09F052C047
:1046600080913E0590913F05892B09F04BC08091C8
:10467000E800877F8093E8008091E80080FFFCCF0E
:104680008091240136C080913A058132D9F580911C
:104690003E0590913F05892BA9F58091E800877F21
:1046A0008093E8000E947C2580913C058093240142
:1046B0000C94601980913A05813221F58091E800CF
:1046C000877F8093E8000E947C2580913D05809340
:1046D0001003089580913A05813AA1F48091E80091
:1046E000877F8093E8008091E80080FFFCCF809175
:1046F00010038093F1008091E8008E778093E800AA
:104700000C947C25089584B7877F84BF0FB6F894F6
:10471000A89580916000886180936000109260008D
:104720000FBE90E080E80FB6F894809361009093FC
:1047300061000FBE0E9438150E94CE250E942B26D4
:104740008091E20084608093E20078940E94C02807
:104750000E9446158AE191E00E94AA1480913905D1
:104760008530A9F480913905853079F40E94FC20C8
:10477000809137058823B1F30E94E420882391F3C8
:104780000E9427240E946019EDCF0E942C210E94D4
:1047900051150E944215E2CF0C94CE23292F3327C6
:1047A00023303105C9F060F42130310581F0223029
:1047B000310509F044C08BE390E02DE738E043C0B9
:1047C00021323105E1F02232310549F138C082E170
:1047D00090E028EB38E037C099278130910549F007
:1047E00028F0029761F5E9E5F8E005C0E9E7F8E0AF
:1047F00002C0E7E6F8E0849190E09F0124C06115D3
:10480000710541F061307105D1F489E090E028EA4A
:1048100038E019C089E090E02FE838E014C0611555
:10482000710541F06130710551F486EB90E02AEC9E
:1048300038E009C080E490E020E839E004C080E07E
:1048400090E020E030E0FA0131832083089580E198
:1048500089BD82E189BD09B400FEFDCF8091D800F9
:104860008F7D8093D8008091E00082608093E0008B
:104870008091E00081FDFCCF0895CF92DF92EF920E
:10488000FF920F931F93CF93DF93EC018B017A017B
:104890000E949B25811133C0E114F10439F0F70126
:1048A00080819181081B190BC80FD91FC12CD12CF5
:1048B0000115110519F18091E80085FD16C0809160
:1048C000E8008E778093E800E114F10449F0F701E5
:1048D00080819181C80ED91ED182C08285E00FC02F
:1048E0000E949B25882321F30AC089918093F100BF
:1048F00001501109FFEFCF1ADF0ADACF80E0DF9114
:10490000CF911F910F91FF90EF90DF90CF9008957E
:1049100020914005309141052617370748F0611571
:10492000710539F42091E8002E772093E80001C04A
:10493000B901FC0120E06115710579F1809139051B
:104940008823F1F18530F1F18091E80083FD3CC0CE
:104950008091E80082FD2EC08091E80080FFEBCFBF
:104960002091F3008091F20090E0922B6115710587
:1049700051F08830910538F421912093F100615075
:1049800071090196F3CF21E0089709F020E08091AA
:10499000E8008E778093E800CECF2111CFCF0AC0F8
:1049A00080913905882361F0853061F08091E800BD
:1049B00083FD0AC08091E80082FFF2CF80E0089575
:1049C00082E0089583E0089581E0089520914005F4
:1049D000309141052617370748F06115710539F404
:1049E0002091E8002E772093E80001C0B901FC0176
:1049F00020E06115710591F180913905882309F452
:104A000040C0853009F43FC08091E80083FD3DC07F
:104A10008091E80082FD2FC08091E80080FFE9CFFF
:104A20002091F3008091F20090E0922B61157105C6
:104A300059F08830910540F424912093F10031968B
:104A4000615071090196F2CF21E0089709F020E04A
:104A50008091E8008E778093E800CBCF2111CCCFF6
:104A60000AC080913905882361F0853061F080911A
:104A7000E80083FD0AC08091E80082FFF2CF80E069
:104A8000089582E0089583E0089581E00895982FC5
:104A9000973068F59093E900981739F07091EC0021
:104AA0002091ED005091F00003C0242F762F50E0AC
:104AB00021FD02C09F5FECCF3091EB003E7F309331
:104AC000EB003091ED003D7F3093ED003091EB0035
:104AD00031603093EB007093EC002093ED00509325
:104AE000F0002091EE0027FDE5CF80E008958F7063
:104AF0008093E90081E0089580913A0587FF11C015
:104B00008091E80082FD05C0809139058111F8CFC0
:104B100011C08091E8008B770BC080913905882304
:104B200049F08091E80080FFF8CF8091E8008E770F
:104B30008093E80008952091E4003091E50095E627
:104B40004091EC00842F817040FF23C08091E800E9
:104B500080FD1DC080913905882399F0853099F03A
:104B60008091EB0085FD11C04091E4005091E5007B
:104B70002417350729F3915011F09A01E1CF84E011
:104B8000089582E0089583E0089581E0089580E02B
:104B900008954091E80042FFDDCF08950E943C2631
:104BA0000E944426E0EEF0E0808181608083E8EDA1
:104BB000F0E080818F77808319BCA7EDB0E08C9105
:104BC0008E7F8C9380818F7E80831092380508952C
:104BD0000F931F93CF93DF930E943C260E9444269D
:104BE000C8EDD0E088818F7788838881806888834A
:104BF00088818F7D888319BC109239051092350504
:104C0000109237051092360500EE10E0F801808111
:104C10008B7F808388818160888342E060E080E0D0
:104C20000E944725E1EEF0E080818E7F8083E2EEF6
:104C3000F0E0808181608083808188608083F801DA
:104C400080818E7F8083888180618883DF91CF918E
:104C50001F910F910895E8EDF0E080818F7E8083B1
:104C6000E7EDF0E080818160808384E082BF81E0B5
:104C7000809338050C94E825E8EDF0E080818E7F84
:104C800080831092E20008951092DA001092E10001
:104C900008951F920F920FB60F9211242F933F93F6
:104CA0004F935F936F937F938F939F93AF93BF9334
:104CB000EF93FF938091E10082FF0BC08091E200AF
:104CC00082FF07C08091E1008B7F8093E1000E940A
:104CD000BF288091DA0080FF1FC08091D80080FF3C
:104CE0001BC08091DA008E7F8093DA008091D9001A
:104CF00080FF0DC080E189BD82E189BD09B400FE5D
:104D0000FDCF81E0809339050E94A82205C019BC1F
:104D1000109239050E94B6228091E10080FF19C0EF
:104D20008091E20080FF15C08091E2008E7F809329
:104D3000E2008091E20080618093E2008091D800DF
:104D400080628093D80019BC85E0809339050E9469
:104D5000BA228091E10084FF30C08091E20084FF9C
:104D60002CC080E189BD82E189BD09B400FEFDCF80
:104D70008091D8008F7D8093D8008091E1008F7E54
:104D80008093E1008091E2008F7E8093E200809129
:104D9000E20081608093E20080913505882311F064
:104DA00084E007C08091E30087FD02C081E001C07C
:104DB00083E0809339050E94BB228091E10083FF4C
:104DC00029C08091E20083FF25C08091E100877FA8
:104DD0008093E10082E0809339051092350580913F
:104DE000E1008E7F8093E1008091E2008E7F8093CE
:104DF000E2008091E20080618093E20042E060E0A6
:104E000080E00E9447258091F00088608093F00048
:104E10000E94B922FF91EF91BF91AF919F918F9125
:104E20007F916F915F914F913F912F910F900FBEA6
:104E30000F901F9018951F920F920FB60F9211248A
:104E40002F933F934F935F936F937F938F939F9392
:104E5000AF93BF93CF93DF93EF93FF93C091E9009C
:104E6000CF708091EC00D82FD17080FDD0E81092E7
:104E7000E9008091F000877F8093F00078940E9491
:104E80005F271092E9008091F00088608093F00025
:104E9000CD2BCF70C093E900FF91EF91DF91CF91BF
:104EA000BF91AF919F918F917F916F915F914F9142
:104EB0003F912F910F900FBE0F901F9018951F9349
:104EC000CF93DF93CDB7DEB7AA970FB6F894DEBFC6
:104ED0000FBECDBFEAE3F5E08091F100819325E0BC
:104EE000E234F207C9F70E94C6228091E80083FFEE
:104EF0002EC180913A0590913B05492F50E04A30F0
:104F0000510508F024C1FA01E158FF4F0C94212902
:104F1000803821F0823809F01AC108C08091360526
:104F200090913705992389F082600FC080913E05EA
:104F30008F70873008F00BC18093E9008091EB00FF
:104F400085FB882780F91092E9009091E800977F0F
:104F50009093E8008093F1001092F100D1C0282FC7
:104F60002D7F09F0F4C0882319F0823061F0EFC082
:104F700080913C05813009F0EAC0933009F080E06F
:104F8000809337052EC080913C0581112AC0809105
:104F90003E058F702FEF280F263008F0D8C0809381
:104FA000E9002091EB0020FF1CC0933021F4809198
:104FB000EB00806214C09091EB0090619093EB0045
:104FC00021E030E0A90102C0440F551F8A95E2F7A5
:104FD0004093EA001092EA008091EB008860809391
:104FE000EB001092E9008091E800877F8093E80051
:104FF0000E947C25ACC08111AAC010913C051F778E
:105000008091E3008078812B8093E3008091E80019
:10501000877F8093E8000E947C258091E80080FFD4
:10502000FCCF8091E30080688093E300111102C0FF
:1050300082E001C083E08093390589C080588230C6
:1050400008F085C080913C0590913D058C3D53E072
:10505000950779F583E08A838AE289834FB7F894CC
:10506000DE01139620E03EE051E2E32FF0E05093A2
:105070005700E49120FF03C0E295EF703F5FEF70AF
:105080008E2F90E0EA3010F0C79601C0C0968D9345
:105090009D932F5F243149F74FBF8091E800877FB0
:1050A0008093E8006AE270E0CE0101960E948824B5
:1050B00016C060913E0570913F05AE014F5F5F4F96
:1050C0000E94CC23BC01892B09F441C09091E800D7
:1050D000977F9093E80089819A810E94E6248091CD
:1050E000E8008B778093E80032C0803881F58091AA
:1050F000E800877F8093E800809135058093F10078
:105100008091E8008E7772CF811121C080913C059B
:1051100090913D0599270297D4F48091E800877F0C
:105120008093E80080913C05809335050E947C25A2
:1051300080913505811106C08091E30087FD02C092
:1051400081E001C084E0809339050E94BC228091F7
:10515000E80083FF0AC08091E800877F8093E80021
:105160008091EB0080628093EB00AA960FB6F894D2
:10517000DEBF0FBECDBFDF91CF911F91089508957F
:10518000CF93809139058823A1F0C091E900CF70B9
:105190009091EC00892F817090FD80E8C82B1092CF
:1051A000E9008091E80083FD0E945F27CF70C093E3
:1051B000E900CF9108950E94CE25109239050895F7
:1051C000E8EDF0E08081806180838AE18A95F1F7E3
:1051D00000C08091D90081700895991B79E004C0C6
:1051E000991F961708F0961B881F7A95C9F7809526
:1051F0000895AA1BBB1B51E107C0AA1FBB1FA6171E
:10520000B70710F0A61BB70B881F991F5A95A9F76F
:1052100080959095BC01CD01089597FB072E16F45B
:10522000009407D077FD09D00E94F92807FC05D02B
:105230003EF4909581959F4F0895709561957F4FAD
:105240000895EE0FFF1F0590F491E02D0994FB01E6
:10525000DC0102C005900D9241505040D8F70895EE
:10526000FB01DC0104C08D910190801921F44150B3
:105270005040C8F7881B990B0895AEE0B0E0E3E416
:10528000F9E20C944E2C0D891E898F89988D26E0A9
:105290002C831A83098397FF02C080E090E801976E
:1052A0009E838D83AE01455E5F4F698D7A8DCE0101
:1052B00001960E946D294D815E8157FD0AC02F81A4
:1052C0003885421753070CF49A01F801E20FF31FD7
:1052D00010822E96E4E00C946A2CABE0B0E0E3E799
:1052E000F9E20C94402C6C017B018A01FC011782CD
:1052F0001682838181FFCCC1CE0101963C01F6016B
:105300009381F70193FD859193FF81917F0188231C
:1053100009F4BAC1853239F493FD859193FF8191E7
:105320007F01853229F4B60190E00E94642BE7CF1B
:10533000912C212C312CFFE1F315D8F08B3279F030
:1053400038F4803279F08332A1F4232D20611DC01E
:105350008D3261F0803369F4232D216016C0832DD6
:105360008260382EE32DE4603E2E2AC0F32DF860D3
:105370001DC037FC2DC020ED280F2A3040F08E32A2
:10538000B9F436FC81C1232D2064322E19C036FEBB
:1053900006C08AE0989E200D1124922E11C0EAE0EA
:1053A0002E9E200D1124222EF32DF0623F2E08C0D8
:1053B0008C3621F4832D8068382E02C0883641F463
:1053C000F70193FD859193FF81917F018111B3CF07
:1053D000982F9F7D9554933028F40C5F1F4F9FE3C7
:1053E00099830DC0833631F0833771F0833509F02E
:1053F00059C021C0F801808189830E5F1F4F882426
:105400008394912C530113C02801F2E04F0E511CDC
:10541000F801A080B18036FE03C0692D70E002C0A3
:105420006FEF7FEFC5010E94592B4C018201F32DD4
:10543000FF773F2E16C0280122E0420E511CF801D2
:10544000A080B18036FE03C0692D70E002C06FEF0E
:105450007FEFC5010E944E2B4C01F32DF0683F2ECB
:10546000820133FC1BC0822D90E088169906B0F4AF
:10547000B60180E290E00E94642B2A94F4CFF501FB
:1054800037FC859137FE81915F01B60190E00E9463
:10549000642B21102A9421E0821A9108811491042E
:1054A00071F7E8C0843611F0893641F5F80137FE0E
:1054B00007C060817181828193810C5F1F4F08C09A
:1054C00060817181072E000C880B990B0E5F1F4FB6
:1054D000F32DFF763F2E97FF09C09095809570952C
:1054E00061957F4F8F4F9F4FF0683F2E2AE030E04D
:1054F000A3010E94A02B882E861845C0853731F461
:10550000232D2F7EB22E2AE030E025C0932D997FE7
:10551000B92E8F36C1F018F4883579F0B5C08037D0
:1055200019F0883721F0B0C0E92FE061BE2EB4FE3B
:105530000DC0FB2DF460BF2E09C034FE0AC0292F18
:105540002660B22E06C028E030E005C020E130E041
:1055500002C020E132E0F801B7FE07C0608171812E
:10556000828193810C5F1F4F06C06081718180E052
:1055700090E00E5F1F4FA3010E94A02B882E86187B
:10558000FB2DFF773F2E36FE0DC0232D2E7FA22E42
:10559000891458F434FE0BC032FC09C0832D8E7E72
:1055A000A82E05C0B82CA32C03C0B82C01C0B92C60
:1055B000A4FE0FC0FE01E80DF11D8081803321F4AF
:1055C0009A2D997EA92E09C0A2FE06C0B394B39469
:1055D00004C08A2D867809F0B394A3FC11C0A0FE04
:1055E00006C0B21488F4280C922C9B180EC0B2147A
:1055F00060F4B60180E290E00E94642BB394F7CF90
:10560000B21418F42B1802C0982C212CA4FE10C040
:10561000B60180E390E00E94642BA2FE17C0A1FCBB
:1056200003C088E790E002C088E590E0B6010CC0B6
:105630008A2D867859F0A1FE02C08BE201C080E27B
:10564000A7FC8DE2B60190E00E94642B891438F427
:10565000B60180E390E00E94642B9A94F7CF8A947D
:10566000F301E80DF11D8081B60190E00E94642BEA
:105670008110F5CF222009F442CEB60180E290E0FD
:105680000E94642B2A94F6CFF6018681978102C08E
:105690008FEF9FEF2B96E2E10C945C2CFC010590C0
:1056A000615070400110D8F7809590958E0F9F1F24
:1056B0000895FC016150704001900110D8F7809569
:1056C00090958E0F9F1F08950F931F93CF93DF9395
:1056D000FB01238121FD03C08FEF9FEF2CC022FF30
:1056E00016C046815781248135814217530744F4FF
:1056F000A081B1819D012F5F3F4F318320838C9327
:10570000268137812F5F3F4F3783268314C08B015B
:10571000EC01FB010084F185E02D0995892BE1F670
:10572000D80116968D919C911797019617969C9388
:105730008E931697CE01DF91CF911F910F9108950F
:10574000FA01AA27283051F1203181F1E8946F93B2
:105750006E7F6E5F7F4F8F4F9F4FAF4FB1E03ED058
:10576000B4E03CD0670F781F891F9A1FA11D680FF6
:10577000791F8A1F911DA11D6A0F711D811D911D29
:10578000A11D20D009F468943F912AE0269F11249E
:105790003019305D3193DEF6CF010895462F477002
:1057A000405D4193B3E00FD0C9F7F6CF462F4F705D
:1057B000405D4A3318F0495D31FD4052419302D0BB
:1057C000A9F7EACFB4E0A695979587957795679561
:1057D000BA95C9F700976105710508959B01AC0161
:1057E0000A2E06945795479537952795BA95C9F788
:1057F000620F731F841F951FA01D0895F999FECF96
:1058000092BD81BDF89A992780B50895A8E1B0E0CE
:1058100042E050E00C94322C262FF999FECF92BD35
:1058200081BDF89A019700B4021639F01FBA20BD65
:105830000FB6F894FA9AF99A0FBE08950396272F97
:105840000E940D2C0E940C2C252F0E940D2C242F21
:105850000C940D2C0196272F0E940D2C0C940C2CCF
:10586000DC01CB01FC01F999FECF06C0F2BDE1BD20
:10587000F89A319600B40D9241505040B8F708950F
:105880002F923F924F925F926F927F928F929F9250
:10589000AF92BF92CF92DF92EF92FF920F931F933E
:1058A000CF93DF93CDB7DEB7CA1BDB0B0FB6F894EF
:1058B000DEBF0FBECDBF09942A88398848885F842F
:1058C0006E847D848C849B84AA84B984C884DF80A0
:1058D000EE80FD800C811B81AA81B981CE0FD11D84
:1058E0000FB6F894DEBF0FBECDBFED010895F8945A
:0258F000FFCFE8
:1058F200012808641E140A321E0021007F220003C0
:105902004702044802044C02CA020A2267224822C1
:10591200442240220125647825642C206B253264C0
:10592200203A20256300202020206162636465669E
:105932006768696A6B6C6D6E6F707172737475767D
:105942007778797A313233343536373839305245CF
:1059520042545F2D3D5B5D5C233B27602C2E2F2044
:105962002020E200E900EA00B500B600B700CD0051
:105972008301CC008A0192019401210223022402B4
:105982002502260227022A02B300B4006F0070002B
:10599200818283F4F5F6F73133946697C6000000EE
:1059A200000008101818100800E200E900EA00B52B
:1059B20000B600B700CD008301CC008A01920194A9
:1059C200012102230224022502260227022A02B30F
:0A59D20000B4006F007000818283B2
:00000001FF
